{
    "contractName": "StarNotary",
    "abi": [
        {
            "inputs": [],
            "stateMutability": "nonpayable",
            "type": "constructor"
        },
        {
            "anonymous": false,
            "inputs": [
                {
                    "indexed": true,
                    "internalType": "address",
                    "name": "owner",
                    "type": "address"
                },
                {
                    "indexed": true,
                    "internalType": "address",
                    "name": "approved",
                    "type": "address"
                },
                {
                    "indexed": true,
                    "internalType": "uint256",
                    "name": "tokenId",
                    "type": "uint256"
                }
            ],
            "name": "Approval",
            "type": "event"
        },
        {
            "anonymous": false,
            "inputs": [
                {
                    "indexed": true,
                    "internalType": "address",
                    "name": "owner",
                    "type": "address"
                },
                {
                    "indexed": true,
                    "internalType": "address",
                    "name": "operator",
                    "type": "address"
                },
                {
                    "indexed": false,
                    "internalType": "bool",
                    "name": "approved",
                    "type": "bool"
                }
            ],
            "name": "ApprovalForAll",
            "type": "event"
        },
        {
            "anonymous": false,
            "inputs": [
                {
                    "indexed": true,
                    "internalType": "address",
                    "name": "from",
                    "type": "address"
                },
                {
                    "indexed": true,
                    "internalType": "address",
                    "name": "to",
                    "type": "address"
                },
                {
                    "indexed": true,
                    "internalType": "uint256",
                    "name": "tokenId",
                    "type": "uint256"
                }
            ],
            "name": "Transfer",
            "type": "event"
        },
        {
            "inputs": [
                {
                    "internalType": "address",
                    "name": "to",
                    "type": "address"
                },
                {
                    "internalType": "uint256",
                    "name": "tokenId",
                    "type": "uint256"
                }
            ],
            "name": "approve",
            "outputs": [],
            "stateMutability": "nonpayable",
            "type": "function"
        },
        {
            "inputs": [
                {
                    "internalType": "address",
                    "name": "owner",
                    "type": "address"
                }
            ],
            "name": "balanceOf",
            "outputs": [
                {
                    "internalType": "uint256",
                    "name": "",
                    "type": "uint256"
                }
            ],
            "stateMutability": "view",
            "type": "function"
        },
        {
            "inputs": [],
            "name": "baseURI",
            "outputs": [
                {
                    "internalType": "string",
                    "name": "",
                    "type": "string"
                }
            ],
            "stateMutability": "view",
            "type": "function"
        },
        {
            "inputs": [
                {
                    "internalType": "uint256",
                    "name": "_tokenId",
                    "type": "uint256"
                }
            ],
            "name": "buyStar",
            "outputs": [],
            "stateMutability": "payable",
            "type": "function"
        },
        {
            "inputs": [
                {
                    "internalType": "string",
                    "name": "_name",
                    "type": "string"
                },
                {
                    "internalType": "uint256",
                    "name": "_tokenId",
                    "type": "uint256"
                }
            ],
            "name": "createStar",
            "outputs": [],
            "stateMutability": "nonpayable",
            "type": "function"
        },
        {
            "inputs": [
                {
                    "internalType": "uint256",
                    "name": "_tokenId1",
                    "type": "uint256"
                },
                {
                    "internalType": "uint256",
                    "name": "_tokenId2",
                    "type": "uint256"
                }
            ],
            "name": "exchangeStars",
            "outputs": [],
            "stateMutability": "nonpayable",
            "type": "function"
        },
        {
            "inputs": [
                {
                    "internalType": "uint256",
                    "name": "tokenId",
                    "type": "uint256"
                }
            ],
            "name": "getApproved",
            "outputs": [
                {
                    "internalType": "address",
                    "name": "",
                    "type": "address"
                }
            ],
            "stateMutability": "view",
            "type": "function"
        },
        {
            "inputs": [
                {
                    "internalType": "address",
                    "name": "owner",
                    "type": "address"
                },
                {
                    "internalType": "address",
                    "name": "operator",
                    "type": "address"
                }
            ],
            "name": "isApprovedForAll",
            "outputs": [
                {
                    "internalType": "bool",
                    "name": "",
                    "type": "bool"
                }
            ],
            "stateMutability": "view",
            "type": "function"
        },
        {
            "inputs": [
                {
                    "internalType": "uint256",
                    "name": "_tokenId",
                    "type": "uint256"
                }
            ],
            "name": "lookUptokenIdToStarInfo",
            "outputs": [
                {
                    "internalType": "string",
                    "name": "",
                    "type": "string"
                }
            ],
            "stateMutability": "view",
            "type": "function"
        },
        {
            "inputs": [],
            "name": "name",
            "outputs": [
                {
                    "internalType": "string",
                    "name": "",
                    "type": "string"
                }
            ],
            "stateMutability": "view",
            "type": "function"
        },
        {
            "inputs": [
                {
                    "internalType": "uint256",
                    "name": "tokenId",
                    "type": "uint256"
                }
            ],
            "name": "ownerOf",
            "outputs": [
                {
                    "internalType": "address",
                    "name": "",
                    "type": "address"
                }
            ],
            "stateMutability": "view",
            "type": "function"
        },
        {
            "inputs": [
                {
                    "internalType": "uint256",
                    "name": "_tokenId",
                    "type": "uint256"
                },
                {
                    "internalType": "uint256",
                    "name": "_price",
                    "type": "uint256"
                }
            ],
            "name": "putStarUpForSale",
            "outputs": [],
            "stateMutability": "nonpayable",
            "type": "function"
        },
        {
            "inputs": [
                {
                    "internalType": "address",
                    "name": "from",
                    "type": "address"
                },
                {
                    "internalType": "address",
                    "name": "to",
                    "type": "address"
                },
                {
                    "internalType": "uint256",
                    "name": "tokenId",
                    "type": "uint256"
                }
            ],
            "name": "safeTransferFrom",
            "outputs": [],
            "stateMutability": "nonpayable",
            "type": "function"
        },
        {
            "inputs": [
                {
                    "internalType": "address",
                    "name": "from",
                    "type": "address"
                },
                {
                    "internalType": "address",
                    "name": "to",
                    "type": "address"
                },
                {
                    "internalType": "uint256",
                    "name": "tokenId",
                    "type": "uint256"
                },
                {
                    "internalType": "bytes",
                    "name": "_data",
                    "type": "bytes"
                }
            ],
            "name": "safeTransferFrom",
            "outputs": [],
            "stateMutability": "nonpayable",
            "type": "function"
        },
        {
            "inputs": [
                {
                    "internalType": "address",
                    "name": "operator",
                    "type": "address"
                },
                {
                    "internalType": "bool",
                    "name": "approved",
                    "type": "bool"
                }
            ],
            "name": "setApprovalForAll",
            "outputs": [],
            "stateMutability": "nonpayable",
            "type": "function"
        },
        {
            "inputs": [
                {
                    "internalType": "uint256",
                    "name": "",
                    "type": "uint256"
                }
            ],
            "name": "starsForSale",
            "outputs": [
                {
                    "internalType": "uint256",
                    "name": "",
                    "type": "uint256"
                }
            ],
            "stateMutability": "view",
            "type": "function"
        },
        {
            "inputs": [
                {
                    "internalType": "bytes4",
                    "name": "interfaceId",
                    "type": "bytes4"
                }
            ],
            "name": "supportsInterface",
            "outputs": [
                {
                    "internalType": "bool",
                    "name": "",
                    "type": "bool"
                }
            ],
            "stateMutability": "view",
            "type": "function"
        },
        {
            "inputs": [],
            "name": "symbol",
            "outputs": [
                {
                    "internalType": "string",
                    "name": "",
                    "type": "string"
                }
            ],
            "stateMutability": "view",
            "type": "function"
        },
        {
            "inputs": [
                {
                    "internalType": "uint256",
                    "name": "index",
                    "type": "uint256"
                }
            ],
            "name": "tokenByIndex",
            "outputs": [
                {
                    "internalType": "uint256",
                    "name": "",
                    "type": "uint256"
                }
            ],
            "stateMutability": "view",
            "type": "function"
        },
        {
            "inputs": [
                {
                    "internalType": "uint256",
                    "name": "",
                    "type": "uint256"
                }
            ],
            "name": "tokenIdToStarInfo",
            "outputs": [
                {
                    "internalType": "string",
                    "name": "name",
                    "type": "string"
                }
            ],
            "stateMutability": "view",
            "type": "function"
        },
        {
            "inputs": [
                {
                    "internalType": "address",
                    "name": "owner",
                    "type": "address"
                },
                {
                    "internalType": "uint256",
                    "name": "index",
                    "type": "uint256"
                }
            ],
            "name": "tokenOfOwnerByIndex",
            "outputs": [
                {
                    "internalType": "uint256",
                    "name": "",
                    "type": "uint256"
                }
            ],
            "stateMutability": "view",
            "type": "function"
        },
        {
            "inputs": [
                {
                    "internalType": "uint256",
                    "name": "tokenId",
                    "type": "uint256"
                }
            ],
            "name": "tokenURI",
            "outputs": [
                {
                    "internalType": "string",
                    "name": "",
                    "type": "string"
                }
            ],
            "stateMutability": "view",
            "type": "function"
        },
        {
            "inputs": [],
            "name": "totalSupply",
            "outputs": [
                {
                    "internalType": "uint256",
                    "name": "",
                    "type": "uint256"
                }
            ],
            "stateMutability": "view",
            "type": "function"
        },
        {
            "inputs": [
                {
                    "internalType": "address",
                    "name": "from",
                    "type": "address"
                },
                {
                    "internalType": "address",
                    "name": "to",
                    "type": "address"
                },
                {
                    "internalType": "uint256",
                    "name": "tokenId",
                    "type": "uint256"
                }
            ],
            "name": "transferFrom",
            "outputs": [],
            "stateMutability": "nonpayable",
            "type": "function"
        },
        {
            "inputs": [
                {
                    "internalType": "address",
                    "name": "_to1",
                    "type": "address"
                },
                {
                    "internalType": "uint256",
                    "name": "_tokenId",
                    "type": "uint256"
                }
            ],
            "name": "transferStar",
            "outputs": [],
            "stateMutability": "nonpayable",
            "type": "function"
        }
    ],
    "bytecode": "60806040523480156200001157600080fd5b50604080518082018252600b81526a4c75636b7920537461727360a81b602080830191909152825180840190935260048352632629aa2960e11b9083015290620000626301ffc9a760e01b620000cc565b81516200007790600690602085019062000151565b5080516200008d90600790602084019062000151565b50620000a06380ac58cd60e01b620000cc565b620000b2635b5e139f60e01b620000cc565b620000c463780e9d6360e01b620000cc565b5050620001ed565b6001600160e01b031980821614156200012c576040805162461bcd60e51b815260206004820152601c60248201527f4552433136353a20696e76616c696420696e7465726661636520696400000000604482015290519081900360640190fd5b6001600160e01b0319166000908152602081905260409020805460ff19166001179055565b828054600181600116156101000203166002900490600052602060002090601f016020900481019282601f106200019457805160ff1916838001178555620001c4565b82800160010185558215620001c4579182015b82811115620001c4578251825591602001919060010190620001a7565b50620001d2929150620001d6565b5090565b5b80821115620001d25760008155600101620001d7565b61237c80620001fd6000396000f3fe6080604052600436106101665760003560e01c806342842e0e116100d15780639697c0a11161008a578063c87b56dd11610064578063c87b56dd146106e9578063d7830ccb14610713578063e7152a5c1461073d578063e985e9c51461077657610166565b80639697c0a114610526578063a22cb465146105db578063b88d4fde1461061657610166565b806342842e0e146104325780634f6ccce7146104755780636352211e1461049f5780636c0360eb146104c957806370a08231146104de57806395d89b411461051157610166565b806318160ddd1161012357806318160ddd1461032a5780631967fd981461033f57806323b872dd146103695780632f1c34ef146103ac5780632f745c59146103c9578063316a43611461040257610166565b806301ffc9a71461016b5780630564b130146101b357806306fdde03146101ef578063081812fc14610279578063095ea7b3146102bf57806315e0afa5146102fa575b600080fd5b34801561017757600080fd5b5061019f6004803603602081101561018e57600080fd5b50356001600160e01b0319166107b1565b604080519115158252519081900360200190f35b3480156101bf57600080fd5b506101dd600480360360208110156101d657600080fd5b50356107d4565b60408051918252519081900360200190f35b3480156101fb57600080fd5b506102046107e6565b6040805160208082528351818301528351919283929083019185019080838360005b8381101561023e578181015183820152602001610226565b50505050905090810190601f16801561026b5780820380516001836020036101000a031916815260200191505b509250505060405180910390f35b34801561028557600080fd5b506102a36004803603602081101561029c57600080fd5b503561087c565b604080516001600160a01b039092168252519081900360200190f35b3480156102cb57600080fd5b506102f8600480360360408110156102e257600080fd5b506001600160a01b0381351690602001356108de565b005b34801561030657600080fd5b506102f86004803603604081101561031d57600080fd5b50803590602001356109b9565b34801561033657600080fd5b506101dd610a79565b34801561034b57600080fd5b506102046004803603602081101561036257600080fd5b5035610a8a565b34801561037557600080fd5b506102f86004803603606081101561038c57600080fd5b506001600160a01b03813581169160208101359091169060400135610b2b565b6102f8600480360360208110156103c257600080fd5b5035610b82565b3480156103d557600080fd5b506101dd600480360360408110156103ec57600080fd5b506001600160a01b038135169060200135610ce6565b34801561040e57600080fd5b506102f86004803603604081101561042557600080fd5b5080359060200135610d11565b34801561043e57600080fd5b506102f86004803603606081101561045557600080fd5b506001600160a01b03813581169160208101359091169060400135610d72565b34801561048157600080fd5b506101dd6004803603602081101561049857600080fd5b5035610d8d565b3480156104ab57600080fd5b506102a3600480360360208110156104c257600080fd5b5035610da3565b3480156104d557600080fd5b50610204610dcb565b3480156104ea57600080fd5b506101dd6004803603602081101561050157600080fd5b50356001600160a01b0316610e2c565b34801561051d57600080fd5b50610204610e94565b34801561053257600080fd5b506102f86004803603604081101561054957600080fd5b81019060208101813564010000000081111561056457600080fd5b82018360208201111561057657600080fd5b8035906020019184600183028401116401000000008311171561059857600080fd5b91908080601f0160208091040260200160405190810160405280939291908181526020018383808284376000920191909152509295505091359250610ef5915050565b3480156105e757600080fd5b506102f8600480360360408110156105fe57600080fd5b506001600160a01b0381351690602001351515610f3c565b34801561062257600080fd5b506102f86004803603608081101561063957600080fd5b6001600160a01b0382358116926020810135909116916040820135919081019060808101606082013564010000000081111561067457600080fd5b82018360208201111561068657600080fd5b803590602001918460018302840111640100000000831117156106a857600080fd5b91908080601f016020809104026020016040519081016040528093929190818152602001838380828437600092019190915250929550611041945050505050565b3480156106f557600080fd5b506102046004803603602081101561070c57600080fd5b5035611099565b34801561071f57600080fd5b506102046004803603602081101561073657600080fd5b503561131c565b34801561074957600080fd5b506102f86004803603604081101561076057600080fd5b506001600160a01b0381351690602001356113bd565b34801561078257600080fd5b5061019f6004803603604081101561079957600080fd5b506001600160a01b0381358116916020013516611448565b6001600160e01b0319811660009081526020819052604090205460ff165b919050565b600b6020526000908152604090205481565b60068054604080516020601f60026000196101006001881615020190951694909404938401819004810282018101909252828152606093909290918301828280156108725780601f1061084757610100808354040283529160200191610872565b820191906000526020600020905b81548152906001019060200180831161085557829003601f168201915b5050505050905090565b600061088782611476565b6108c25760405162461bcd60e51b815260040180806020018281038252602c81526020018061224c602c913960400191505060405180910390fd5b506000908152600460205260409020546001600160a01b031690565b60006108e982610da3565b9050806001600160a01b0316836001600160a01b0316141561093c5760405162461bcd60e51b81526004018080602001828103825260218152602001806122d06021913960400191505060405180910390fd5b806001600160a01b031661094e611483565b6001600160a01b0316148061096f575061096f8161096a611483565b611448565b6109aa5760405162461bcd60e51b815260040180806020018281038252603881526020018061219f6038913960400191505060405180910390fd5b6109b48383611487565b505050565b6109c1611483565b6001600160a01b03166109d383610da3565b6001600160a01b03161480610a0857506109eb611483565b6001600160a01b03166109fd82610da3565b6001600160a01b0316145b610a435760405162461bcd60e51b81526004018080602001828103825260258152602001806123226025913960400191505060405180910390fd5b6000610a4e83610da3565b90506000610a5b83610da3565b9050610a688282866114f5565b610a738183856114f5565b50505050565b6000610a856002611641565b905090565b600a6020908152600091825260409182902080548351601f60026000196101006001861615020190931692909204918201849004840281018401909452808452909291839190830182828015610b215780601f10610af657610100808354040283529160200191610b21565b820191906000526020600020905b815481529060010190602001808311610b0457829003601f168201915b5050505050905081565b610b3c610b36611483565b8261164c565b610b775760405162461bcd60e51b81526004018080602001828103825260318152602001806122f16031913960400191505060405180910390fd5b6109b48383836114f5565b6000818152600b6020526040902054610be2576040805162461bcd60e51b815260206004820152601e60248201527f54686520537461722073686f756c6420626520757020666f722073616c650000604482015290519081900360640190fd5b6000818152600b602052604081205490610bfb83610da3565b9050813411610c51576040805162461bcd60e51b815260206004820152601d60248201527f596f75206e65656420746f206861766520656e6f756768204574686572000000604482015290519081900360640190fd5b610c6381610c5d611483565b856114f5565b6000610c6e826116f0565b6040519091506001600160a01b0382169084156108fc029085906000818181858888f19350505050158015610ca7573d6000803e3d6000fd5b5082341115610a735760405133903485900380156108fc02916000818181858888f19350505050158015610cdf573d6000803e3d6000fd5b5050505050565b6001600160a01b0382166000908152600160205260408120610d0890836116f3565b90505b92915050565b33610d1b83610da3565b6001600160a01b031614610d605760405162461bcd60e51b81526004018080602001828103825260278152602001806120d46027913960400191505060405180910390fd5b6000918252600b602052604090912055565b6109b483838360405180602001604052806000815250611041565b600080610d9b6002846116ff565b509392505050565b6000610d0b82604051806060016040528060298152602001612201602991396002919061171b565b60098054604080516020601f60026000196101006001881615020190951694909404938401819004810282018101909252828152606093909290918301828280156108725780601f1061084757610100808354040283529160200191610872565b60006001600160a01b038216610e735760405162461bcd60e51b815260040180806020018281038252602a8152602001806121d7602a913960400191505060405180910390fd5b6001600160a01b0382166000908152600160205260409020610d0b90611641565b60078054604080516020601f60026000196101006001881615020190951694909404938401819004810282018101909252828152606093909290918301828280156108725780601f1061084757610100808354040283529160200191610872565b610efd61202d565b5060408051602080820183528482526000848152600a8252929092208151805192938493610f2e9284920190612040565b509050506109b43383611732565b610f44611483565b6001600160a01b0316826001600160a01b03161415610faa576040805162461bcd60e51b815260206004820152601960248201527f4552433732313a20617070726f766520746f2063616c6c657200000000000000604482015290519081900360640190fd5b8060056000610fb7611483565b6001600160a01b03908116825260208083019390935260409182016000908120918716808252919093529120805460ff191692151592909217909155610ffb611483565b6001600160a01b03167f17307eab39ab6107e8899845ad3d59bd9653f200f220920489ca2b5937696c318360405180821515815260200191505060405180910390a35050565b61105261104c611483565b8361164c565b61108d5760405162461bcd60e51b81526004018080602001828103825260318152602001806122f16031913960400191505060405180910390fd5b610a7384848484611860565b60606110a482611476565b6110df5760405162461bcd60e51b815260040180806020018281038252602f8152602001806122a1602f913960400191505060405180910390fd5b60008281526008602090815260409182902080548351601f60026000196101006001861615020190931692909204918201849004840281018401909452808452606093928301828280156111745780601f1061114957610100808354040283529160200191611174565b820191906000526020600020905b81548152906001019060200180831161115757829003601f168201915b505050505090506060611185610dcb565b9050805160001415611199575090506107cf565b81511561125a5780826040516020018083805190602001908083835b602083106111d45780518252601f1990920191602091820191016111b5565b51815160209384036101000a600019018019909216911617905285519190930192850191508083835b6020831061121c5780518252601f1990920191602091820191016111fd565b6001836020036101000a03801982511681845116808217855250505050505090500192505050604051602081830303815290604052925050506107cf565b80611264856118b2565b6040516020018083805190602001908083835b602083106112965780518252601f199092019160209182019101611277565b51815160209384036101000a600019018019909216911617905285519190930192850191508083835b602083106112de5780518252601f1990920191602091820191016112bf565b6001836020036101000a0380198251168184511680821785525050505050509050019250505060405160208183030381529060405292505050919050565b6000818152600a602090815260409182902080548351601f60026000196101006001861615020190931692909204918201849004840281018401909452808452606093928301828280156113b15780601f10611386576101008083540402835291602001916113b1565b820191906000526020600020905b81548152906001019060200180831161139457829003601f168201915b50505050509050919050565b6113c5611483565b6001600160a01b03166113d782610da3565b6001600160a01b031614611432576040805162461bcd60e51b815260206004820152601d60248201527f5468652073656e646572206d757374206f776e2074686520746f6b656e000000604482015290519081900360640190fd5b61144461143d611483565b83836114f5565b5050565b6001600160a01b03918216600090815260056020908152604080832093909416825291909152205460ff1690565b6000610d0b60028361198d565b3390565b600081815260046020526040902080546001600160a01b0319166001600160a01b03841690811790915581906114bc82610da3565b6001600160a01b03167f8c5be1e5ebec7d5bd14f71427d1e84f3dd0314c0f7b2291e5b200ac8c7c3b92560405160405180910390a45050565b826001600160a01b031661150882610da3565b6001600160a01b03161461154d5760405162461bcd60e51b81526004018080602001828103825260298152602001806122786029913960400191505060405180910390fd5b6001600160a01b0382166115925760405162461bcd60e51b815260040180806020018281038252602481526020018061214f6024913960400191505060405180910390fd5b61159d8383836109b4565b6115a8600082611487565b6001600160a01b03831660009081526001602052604090206115ca9082611999565b506001600160a01b03821660009081526001602052604090206115ed90826119a5565b506115fa600282846119b1565b5080826001600160a01b0316846001600160a01b03167fddf252ad1be2c89b69c2b068fc378daa952ba7f163c4a11628f55a4df523b3ef60405160405180910390a4505050565b6000610d0b826119c7565b600061165782611476565b6116925760405162461bcd60e51b815260040180806020018281038252602c815260200180612173602c913960400191505060405180910390fd5b600061169d83610da3565b9050806001600160a01b0316846001600160a01b031614806116d85750836001600160a01b03166116cd8461087c565b6001600160a01b0316145b806116e857506116e88185611448565b949350505050565b90565b6000610d0883836119cb565b600080808061170e8686611a2f565b9097909650945050505050565b6000611728848484611aaa565b90505b9392505050565b6001600160a01b03821661178d576040805162461bcd60e51b815260206004820181905260248201527f4552433732313a206d696e7420746f20746865207a65726f2061646472657373604482015290519081900360640190fd5b61179681611476565b156117e8576040805162461bcd60e51b815260206004820152601c60248201527f4552433732313a20746f6b656e20616c7265616479206d696e74656400000000604482015290519081900360640190fd5b6117f4600083836109b4565b6001600160a01b038216600090815260016020526040902061181690826119a5565b50611823600282846119b1565b5060405181906001600160a01b038416906000907fddf252ad1be2c89b69c2b068fc378daa952ba7f163c4a11628f55a4df523b3ef908290a45050565b61186b8484846114f5565b61187784848484611b74565b610a735760405162461bcd60e51b815260040180806020018281038252603281526020018061211d6032913960400191505060405180910390fd5b6060816118d757506040805180820190915260018152600360fc1b60208201526107cf565b8160005b81156118ef57600101600a820491506118db565b60608167ffffffffffffffff8111801561190857600080fd5b506040519080825280601f01601f191660200182016040528015611933576020820181803683370190505b50859350905060001982015b831561198457600a840660300160f81b8282806001900393508151811061196257fe5b60200101906001600160f81b031916908160001a905350600a8404935061193f565b50949350505050565b6000610d088383611cdc565b6000610d088383611cf4565b6000610d088383611dba565b600061172884846001600160a01b038516611e04565b5490565b81546000908210611a0d5760405162461bcd60e51b81526004018080602001828103825260228152602001806120fb6022913960400191505060405180910390fd5b826000018281548110611a1c57fe5b9060005260206000200154905092915050565b815460009081908310611a735760405162461bcd60e51b815260040180806020018281038252602281526020018061222a6022913960400191505060405180910390fd5b6000846000018481548110611a8457fe5b906000526020600020906002020190508060000154816001015492509250509250929050565b60008281526001840160205260408120548281611b455760405162461bcd60e51b81526004018080602001828103825283818151815260200191508051906020019080838360005b83811015611b0a578181015183820152602001611af2565b50505050905090810190601f168015611b375780820380516001836020036101000a031916815260200191505b509250505060405180910390fd5b50846000016001820381548110611b5857fe5b9060005260206000209060020201600101549150509392505050565b6000611b88846001600160a01b0316611e9b565b611b94575060016116e8565b6060611ca2630a85bd0160e11b611ba9611483565b88878760405160240180856001600160a01b03168152602001846001600160a01b0316815260200183815260200180602001828103825283818151815260200191508051906020019080838360005b83811015611c10578181015183820152602001611bf8565b50505050905090810190601f168015611c3d5780820380516001836020036101000a031916815260200191505b5095505050505050604051602081830303815290604052906001600160e01b0319166020820180516001600160e01b03838183161783525050505060405180606001604052806032815260200161211d603291396001600160a01b0388169190611ea1565b90506000818060200190516020811015611cbb57600080fd5b50516001600160e01b031916630a85bd0160e11b1492505050949350505050565b60009081526001919091016020526040902054151590565b60008181526001830160205260408120548015611db05783546000198083019190810190600090879083908110611d2757fe5b9060005260206000200154905080876000018481548110611d4457fe5b600091825260208083209091019290925582815260018981019092526040902090840190558654879080611d7457fe5b60019003818190600052602060002001600090559055866001016000878152602001908152602001600020600090556001945050505050610d0b565b6000915050610d0b565b6000611dc68383611cdc565b611dfc57508154600181810184556000848152602080822090930184905584548482528286019093526040902091909155610d0b565b506000610d0b565b600082815260018401602052604081205480611e6957505060408051808201825283815260208082018481528654600181810189556000898152848120955160029093029095019182559151908201558654868452818801909252929091205561172b565b82856000016001830381548110611e7c57fe5b906000526020600020906002020160010181905550600091505061172b565b3b151590565b6060611728848460008585611eb585611e9b565b611f06576040805162461bcd60e51b815260206004820152601d60248201527f416464726573733a2063616c6c20746f206e6f6e2d636f6e7472616374000000604482015290519081900360640190fd5b60006060866001600160a01b031685876040518082805190602001908083835b60208310611f455780518252601f199092019160209182019101611f26565b6001836020036101000a03801982511681845116808217855250505050505090500191505060006040518083038185875af1925050503d8060008114611fa7576040519150601f19603f3d011682016040523d82523d6000602084013e611fac565b606091505b5091509150611fbc828286611fc7565b979650505050505050565b60608315611fd657508161172b565b825115611fe65782518084602001fd5b60405162461bcd60e51b8152602060048201818152845160248401528451859391928392604401919085019080838360008315611b0a578181015183820152602001611af2565b6040518060200160405280606081525090565b828054600181600116156101000203166002900490600052602060002090601f016020900481019282601f1061208157805160ff19168380011785556120ae565b828001600101855582156120ae579182015b828111156120ae578251825591602001919060010190612093565b506120ba9291506120be565b5090565b5b808211156120ba57600081556001016120bf56fe596f752063616e27742073616c6520746865205374617220796f7520646f6e2774206f776e6564456e756d657261626c655365743a20696e646578206f7574206f6620626f756e64734552433732313a207472616e7366657220746f206e6f6e20455243373231526563656976657220696d706c656d656e7465724552433732313a207472616e7366657220746f20746865207a65726f20616464726573734552433732313a206f70657261746f7220717565727920666f72206e6f6e6578697374656e7420746f6b656e4552433732313a20617070726f76652063616c6c6572206973206e6f74206f776e6572206e6f7220617070726f76656420666f7220616c6c4552433732313a2062616c616e636520717565727920666f7220746865207a65726f20616464726573734552433732313a206f776e657220717565727920666f72206e6f6e6578697374656e7420746f6b656e456e756d657261626c654d61703a20696e646578206f7574206f6620626f756e64734552433732313a20617070726f76656420717565727920666f72206e6f6e6578697374656e7420746f6b656e4552433732313a207472616e73666572206f6620746f6b656e2074686174206973206e6f74206f776e4552433732314d657461646174613a2055524920717565727920666f72206e6f6e6578697374656e7420746f6b656e4552433732313a20617070726f76616c20746f2063757272656e74206f776e65724552433732313a207472616e736665722063616c6c6572206973206e6f74206f776e6572206e6f7220617070726f7665645468652073656e646572206d757374206f776e206f6e65206f662074686520746f6b656e73a2646970667358221220664e4796b6cbd1c5d5ff93fbd115f9040dfd660279bd22a690d1799253589d8b64736f6c634300060c0033",
    "sourcePath": "/home/alex/Proiecte/BCDEV-P2/contracts/StarNotary.sol",
    "compiler": {
        "name": "solc",
        "version": "0.6.12+commit.27d51765"
    },
    "functionHashes": {
        "approve(address,uint256)": "095ea7b3",
        "balanceOf(address)": "70a08231",
        "baseURI()": "6c0360eb",
        "buyStar(uint256)": "2f1c34ef",
        "createStar(string,uint256)": "9697c0a1",
        "exchangeStars(uint256,uint256)": "15e0afa5",
        "getApproved(uint256)": "081812fc",
        "isApprovedForAll(address,address)": "e985e9c5",
        "lookUptokenIdToStarInfo(uint256)": "d7830ccb",
        "name()": "06fdde03",
        "ownerOf(uint256)": "6352211e",
        "putStarUpForSale(uint256,uint256)": "316a4361",
        "safeTransferFrom(address,address,uint256)": "42842e0e",
        "safeTransferFrom(address,address,uint256,bytes)": "b88d4fde",
        "setApprovalForAll(address,bool)": "a22cb465",
        "starsForSale(uint256)": "0564b130",
        "supportsInterface(bytes4)": "01ffc9a7",
        "symbol()": "95d89b41",
        "tokenByIndex(uint256)": "4f6ccce7",
        "tokenIdToStarInfo(uint256)": "1967fd98",
        "tokenOfOwnerByIndex(address,uint256)": "2f745c59",
        "tokenURI(uint256)": "c87b56dd",
        "totalSupply()": "18160ddd",
        "transferFrom(address,address,uint256)": "23b872dd",
        "transferStar(address,uint256)": "e7152a5c"
    },
    "gasEstimates": {
        "creation": {
            "codeDepositCost": "1816800",
            "executionCost": "infinite",
            "totalCost": "infinite"
        },
        "external": {
            "approve(address,uint256)": "infinite",
            "balanceOf(address)": "infinite",
            "baseURI()": "infinite",
            "buyStar(uint256)": "infinite",
            "createStar(string,uint256)": "infinite",
            "exchangeStars(uint256,uint256)": "infinite",
            "getApproved(uint256)": "infinite",
            "isApprovedForAll(address,address)": "1372",
            "lookUptokenIdToStarInfo(uint256)": "infinite",
            "name()": "infinite",
            "ownerOf(uint256)": "infinite",
            "putStarUpForSale(uint256,uint256)": "infinite",
            "safeTransferFrom(address,address,uint256)": "infinite",
            "safeTransferFrom(address,address,uint256,bytes)": "infinite",
            "setApprovalForAll(address,bool)": "infinite",
            "starsForSale(uint256)": "1152",
            "supportsInterface(bytes4)": "1196",
            "symbol()": "infinite",
            "tokenByIndex(uint256)": "infinite",
            "tokenIdToStarInfo(uint256)": "infinite",
            "tokenOfOwnerByIndex(address,uint256)": "infinite",
            "tokenURI(uint256)": "infinite",
            "totalSupply()": "1096",
            "transferFrom(address,address,uint256)": "infinite",
            "transferStar(address,uint256)": "infinite"
        },
        "internal": {
            "_make_payable(address)": "12"
        }
    }
}